{
  "contractName": "DSToken",
  "abi": [
    {
      "constant": true,
      "inputs": [],
      "name": "totalSupply",
      "outputs": [
        {
          "name": "",
          "type": "uint256"
        }
      ],
      "payable": false,
      "stateMutability": "view",
      "type": "function"
    },
    {
      "inputs": [],
      "payable": false,
      "stateMutability": "nonpayable",
      "type": "constructor"
    }
  ],
  "bytecode": "0x608060405234801561001057600080fd5b506305f5e100600081905550609e8061002a6000396000f300608060405260043610603f576000357c0100000000000000000000000000000000000000000000000000000000900463ffffffff16806318160ddd146044575b600080fd5b348015604f57600080fd5b506056606c565b6040518082815260200191505060405180910390f35b600054815600a165627a7a72305820a58fb8f34d6a648647293dc59824d8260c2a7d037c0b838ba5c4a1e9ca93a0950029",
  "source": "pragma solidity ^0.4.2;\r\n\r\ncontract DSToken{\r\n  //constructor\r\n  //Set the total amount of token\r\n  //Read the total amount of token\r\n  uint256 public totalSupply; //unsigned integer\r\n  function DSToken() public{\r\n    totalSupply = 100000000; //Every time when this variable is modified,\r\n                             //will write to the block chain\r\n  }\r\n}\r\n",
  "sourcePath": "D:\\PG WORK\\BlockChain\\ds_token\\contracts\\DSToken.sol",
  "compiler": {
    "name": "solc",
    "version": "0.4.24+commit.e67f0147.Emscripten.clang"
  },
  "schemaVersion": "2.0.1",
  "updatedAt": "2018-08-21T13:46:05.549Z"
}